:020000020000FC
:0200000038C006
:0200040018954D
:02000800189549
:02000C00189545
:02001000D5C059
:0200140018953D
:02001800189539
:02001C00189535
:02002000189531
:0200240018952D
:02002800189529
:02002C00189525
:02003000189521
:0200340018951D
:0200380076C090
:02003C00189515
:02004000189511
:0200440018950D
:02004800189509
:02004C00189505
:02005000189501
:020054001895FD
:020058001895F9
:02005C001895F5
:020060001895F1
:1000640018957E306D79335B5F707F7B000008E00C
:100074000EBF0FEF0DBF11240CE000930001002709
:10008400009301010093020101E000930301009336
:10009400040106E000930501002700930601009384
:1000A4000701009308010093090100930A010093DA
:1000B4000B0100930C0100930D0100930E010093BA
:1000C400130100931401009315010093160100938A
:1000D40017010093180100930F010093100100937E
:1000E4001101009312010FE304B90CEF0AB90027C0
:1000F4000BB900E307B90FE008B902E00093680008
:100104000FE000936C0002E004BD03E005BD09EFBD
:1001140007BD02E000936E00789482D0F2D011D132
:10012400FCCF0F930FB70F931F932F933F934F93CE
:100134005F936F937F938F939F93EF93FF9380913C
:100144000C0190910D01019680930C0190930D0187
:1001540004EF11E08017910759F4002700930C0174
:1001640000930D010091090111E001270093090199
:1001740080910A0190910B01019680930A0190935A
:100184000B0108EE13E08017910731F40027009368
:100194000A0100930B018DD145D1FF91EF919F91FD
:1001A4008F917F916F915F914F913F912F911F910B
:1001B4000F910FBF0F9118950F930FB70F931F93C4
:1001C4002F9306B1109113012091140100FF05C073
:1001D40010FF04C01E7F216001C0116001FF05C033
:1001E40011FF04C01D7F226001C0126002FF05C020
:1001F40012FF04C01B7F246001C0146003FF05C00C
:1002040013FF04C0177F286001C018601093130106
:10021400209314012F911F910F910FBF0F911895E7
:100224000F931F9300911401002309F103FF05C0EC
:10023400077F009314011ED01AC00091140100FF1F
:1002440005C00E7F009314014DD011C0009114011C
:1002540001FF05C00D7F009314017CD108C00091FB
:10026400140102FF04C00B7F00931401CAD11F9133
:100274000F9108950F931F9300911501002321F00E
:100284000027009315012BC0009108010395073046
:1002940008F0002700930801013021F410E01093C6
:1002A40007011DC0023021F410E01093070117C0AC
:1002B400033021F411E01093070111C0043021F43C
:1002C40011E0109307010BC0053021F412E01093E4
:1002D400070105C0063019F412E0109307011F91BD
:1002E4000F9108950F9300910801002341F40091A8
:1002F40007010395033008F00027009307010F91CD
:1003040008950F931F9300910701013021F411E028
:100314001093170104C010910901109317011127BC
:1003240000910701023039F000910801053019F0FD
:10033400063009F001C011E0109318011F910F91CC
:1003440008950F931F932F933F934F935F938F932E
:100354009F93EF93FF9300910701003029F40091DC
:100364000001109101010DC020910701213029F4F1
:10037400009103011091040104C000910501109142
:100384000601802F39D0282F392F812F35D0482FBF
:10039400592F009109010023A1F4009108010130B3
:1003A40059F0033049F0053039F0023041F004309F
:1003B40031F0063021F005C02AE03AE002C04AE0FC
:1003C4005AE0822F25D080930F01832F21D0809370
:1003D4001001842F1DD080931101852F19D0809393
:1003E4001201FF91EF919F918F915F914F913F91F6
:1003F4002F911F910F9108950F93002799278A3009
:1004040018F08A500395FBCF982F802F0F910895F1
:10041400FF93EF93F0E0E6E6E80FF11D8491EF918E
:10042400FF9108950F931F932F933F934F93009140
:100434000E01003021F410910F0120E20FC00130B1
:1004440021F41091100120E109C0023021F410912F
:10045400110128E003C01091120124E0312F3695D8
:1004640036953F7140911701442309F0306235B944
:10047400332711FD306810FD3064322B3BB93FE067
:1004840040911801442309F030614091150144233F
:1004940009F0306238B900910E010395043008F078
:1004A400002700930E014F913F912F911F910F91BF
:1004B40008950F931F930091020103950C33D8F014
:1004C4000027009302010091010103950C3380F091
:1004D400002700930101009100010395083128F0E1
:1004E400002700930001E9D008C00093000105C073
:1004F4000093010102C00093020100910201002354
:10050400B1F40091000110910501011781F40091EB
:10051400010110910601011751F400911601002305
:10052400B1F401E0009315010093160110C000918D
:10053400000110910501011739F400910101109196
:100544000601011709F403C00027009316011F9147
:100554000F9108950F931F932F9300910801013079
:1005640049F4109100011395183108F011271093E4
:10057400000143C0023061F41091010113951C3352
:1005840008F011271093010111271093020135C0BF
:10059400033059F4109103011395ABD0121710F0E6
:1005A40009F011E01093030128C0043089F410917C
:1005B400040113951D3008F011E01093040110910B
:1005C400030197D01217C8F0C1F02093030115C09E
:1005D400053049F4109105011395183108F01127DD
:1005E400109305010AC0063041F4109106011395D9
:1005F4001C3308F01127109306012F911F910F91BE
:1006040008950F931F932F9300910801013051F423
:1006140010910001112311F417E101C01A951093F0
:10062400000147C0023069F410910101112311F453
:100634001BE301C01A9510930101112710930201C5
:1006440038C0033059F410910301113019F451D01A
:10065400122F01C01A95109303012BC0043091F49A
:1006640010910401113011F41CE001C01A9510938B
:100674000401109103013DD01217D8F0D1F020935A
:10068400030117C0053051F410910501112311F431
:1006940017E101C01A95109305010BC0063049F407
:1006A40010910601112311F41BE301C01A95109354
:1006B40006012F911F910F9108950F931F932F936C
:1006C40000910301039515D0021768F061F001E071
:1006D400009303011091040113951D3008F011E0FB
:1006E4001093040102C0009303012F911F910F91F5
:1006F40008950F9300910401023051F0043051F039
:10070400063041F0093031F00B3021F02FE103C005
:0A0714002CE101C02EE10F910895C1
:00000001FF
